{
  "_format": "hh-sol-artifact-1",
  "contractName": "QraftToken",
  "sourceName": "contracts/QraftToken.sol",
  "abi": [
    {
      "inputs": [],
      "stateMutability": "nonpayable",
      "type": "constructor"
    },
    {
      "inputs": [
        {
          "internalType": "address",
          "name": "spender",
          "type": "address"
        },
        {
          "internalType": "uint256",
          "name": "allowance",
          "type": "uint256"
        },
        {
          "internalType": "uint256",
          "name": "needed",
          "type": "uint256"
        }
      ],
      "name": "ERC20InsufficientAllowance",
      "type": "error"
    },
    {
      "inputs": [
        {
          "internalType": "address",
          "name": "sender",
          "type": "address"
        },
        {
          "internalType": "uint256",
          "name": "balance",
          "type": "uint256"
        },
        {
          "internalType": "uint256",
          "name": "needed",
          "type": "uint256"
        }
      ],
      "name": "ERC20InsufficientBalance",
      "type": "error"
    },
    {
      "inputs": [
        {
          "internalType": "address",
          "name": "approver",
          "type": "address"
        }
      ],
      "name": "ERC20InvalidApprover",
      "type": "error"
    },
    {
      "inputs": [
        {
          "internalType": "address",
          "name": "receiver",
          "type": "address"
        }
      ],
      "name": "ERC20InvalidReceiver",
      "type": "error"
    },
    {
      "inputs": [
        {
          "internalType": "address",
          "name": "sender",
          "type": "address"
        }
      ],
      "name": "ERC20InvalidSender",
      "type": "error"
    },
    {
      "inputs": [
        {
          "internalType": "address",
          "name": "spender",
          "type": "address"
        }
      ],
      "name": "ERC20InvalidSpender",
      "type": "error"
    },
    {
      "inputs": [
        {
          "internalType": "address",
          "name": "owner",
          "type": "address"
        }
      ],
      "name": "OwnableInvalidOwner",
      "type": "error"
    },
    {
      "inputs": [
        {
          "internalType": "address",
          "name": "account",
          "type": "address"
        }
      ],
      "name": "OwnableUnauthorizedAccount",
      "type": "error"
    },
    {
      "anonymous": false,
      "inputs": [
        {
          "indexed": true,
          "internalType": "address",
          "name": "owner",
          "type": "address"
        },
        {
          "indexed": true,
          "internalType": "address",
          "name": "spender",
          "type": "address"
        },
        {
          "indexed": false,
          "internalType": "uint256",
          "name": "value",
          "type": "uint256"
        }
      ],
      "name": "Approval",
      "type": "event"
    },
    {
      "anonymous": false,
      "inputs": [
        {
          "indexed": true,
          "internalType": "address",
          "name": "previousOwner",
          "type": "address"
        },
        {
          "indexed": true,
          "internalType": "address",
          "name": "newOwner",
          "type": "address"
        }
      ],
      "name": "OwnershipTransferred",
      "type": "event"
    },
    {
      "anonymous": false,
      "inputs": [
        {
          "indexed": true,
          "internalType": "address",
          "name": "user",
          "type": "address"
        },
        {
          "indexed": false,
          "internalType": "uint256",
          "name": "amount",
          "type": "uint256"
        },
        {
          "indexed": false,
          "internalType": "string",
          "name": "reason",
          "type": "string"
        }
      ],
      "name": "RewardDistributed",
      "type": "event"
    },
    {
      "anonymous": false,
      "inputs": [
        {
          "indexed": true,
          "internalType": "address",
          "name": "distributor",
          "type": "address"
        },
        {
          "indexed": false,
          "internalType": "bool",
          "name": "authorized",
          "type": "bool"
        }
      ],
      "name": "RewardDistributorUpdated",
      "type": "event"
    },
    {
      "anonymous": false,
      "inputs": [
        {
          "indexed": true,
          "internalType": "address",
          "name": "from",
          "type": "address"
        },
        {
          "indexed": true,
          "internalType": "address",
          "name": "to",
          "type": "address"
        },
        {
          "indexed": false,
          "internalType": "uint256",
          "name": "value",
          "type": "uint256"
        }
      ],
      "name": "Transfer",
      "type": "event"
    },
    {
      "inputs": [],
      "name": "INITIAL_SUPPLY",
      "outputs": [
        {
          "internalType": "uint256",
          "name": "",
          "type": "uint256"
        }
      ],
      "stateMutability": "view",
      "type": "function"
    },
    {
      "inputs": [
        {
          "internalType": "address",
          "name": "owner",
          "type": "address"
        },
        {
          "internalType": "address",
          "name": "spender",
          "type": "address"
        }
      ],
      "name": "allowance",
      "outputs": [
        {
          "internalType": "uint256",
          "name": "",
          "type": "uint256"
        }
      ],
      "stateMutability": "view",
      "type": "function"
    },
    {
      "inputs": [
        {
          "internalType": "address",
          "name": "spender",
          "type": "address"
        },
        {
          "internalType": "uint256",
          "name": "value",
          "type": "uint256"
        }
      ],
      "name": "approve",
      "outputs": [
        {
          "internalType": "bool",
          "name": "",
          "type": "bool"
        }
      ],
      "stateMutability": "nonpayable",
      "type": "function"
    },
    {
      "inputs": [
        {
          "internalType": "address",
          "name": "account",
          "type": "address"
        }
      ],
      "name": "balanceOf",
      "outputs": [
        {
          "internalType": "uint256",
          "name": "",
          "type": "uint256"
        }
      ],
      "stateMutability": "view",
      "type": "function"
    },
    {
      "inputs": [
        {
          "internalType": "address[]",
          "name": "users",
          "type": "address[]"
        },
        {
          "internalType": "uint256[]",
          "name": "amounts",
          "type": "uint256[]"
        },
        {
          "internalType": "string",
          "name": "reason",
          "type": "string"
        }
      ],
      "name": "batchDistributeRewards",
      "outputs": [],
      "stateMutability": "nonpayable",
      "type": "function"
    },
    {
      "inputs": [],
      "name": "correctAnswerReward",
      "outputs": [
        {
          "internalType": "uint256",
          "name": "",
          "type": "uint256"
        }
      ],
      "stateMutability": "view",
      "type": "function"
    },
    {
      "inputs": [],
      "name": "decimals",
      "outputs": [
        {
          "internalType": "uint8",
          "name": "",
          "type": "uint8"
        }
      ],
      "stateMutability": "view",
      "type": "function"
    },
    {
      "inputs": [
        {
          "internalType": "address",
          "name": "user",
          "type": "address"
        },
        {
          "internalType": "uint256",
          "name": "amount",
          "type": "uint256"
        },
        {
          "internalType": "string",
          "name": "reason",
          "type": "string"
        }
      ],
      "name": "distributeReward",
      "outputs": [],
      "stateMutability": "nonpayable",
      "type": "function"
    },
    {
      "inputs": [
        {
          "internalType": "uint256",
          "name": "amount",
          "type": "uint256"
        }
      ],
      "name": "fundContract",
      "outputs": [],
      "stateMutability": "nonpayable",
      "type": "function"
    },
    {
      "inputs": [],
      "name": "getContractBalance",
      "outputs": [
        {
          "internalType": "uint256",
          "name": "",
          "type": "uint256"
        }
      ],
      "stateMutability": "view",
      "type": "function"
    },
    {
      "inputs": [],
      "name": "name",
      "outputs": [
        {
          "internalType": "string",
          "name": "",
          "type": "string"
        }
      ],
      "stateMutability": "view",
      "type": "function"
    },
    {
      "inputs": [],
      "name": "owner",
      "outputs": [
        {
          "internalType": "address",
          "name": "",
          "type": "address"
        }
      ],
      "stateMutability": "view",
      "type": "function"
    },
    {
      "inputs": [],
      "name": "quizReward",
      "outputs": [
        {
          "internalType": "uint256",
          "name": "",
          "type": "uint256"
        }
      ],
      "stateMutability": "view",
      "type": "function"
    },
    {
      "inputs": [],
      "name": "renounceOwnership",
      "outputs": [],
      "stateMutability": "nonpayable",
      "type": "function"
    },
    {
      "inputs": [
        {
          "internalType": "address",
          "name": "",
          "type": "address"
        }
      ],
      "name": "rewardDistributors",
      "outputs": [
        {
          "internalType": "bool",
          "name": "",
          "type": "bool"
        }
      ],
      "stateMutability": "view",
      "type": "function"
    },
    {
      "inputs": [
        {
          "internalType": "address",
          "name": "distributor",
          "type": "address"
        },
        {
          "internalType": "bool",
          "name": "authorized",
          "type": "bool"
        }
      ],
      "name": "setRewardDistributor",
      "outputs": [],
      "stateMutability": "nonpayable",
      "type": "function"
    },
    {
      "inputs": [],
      "name": "symbol",
      "outputs": [
        {
          "internalType": "string",
          "name": "",
          "type": "string"
        }
      ],
      "stateMutability": "view",
      "type": "function"
    },
    {
      "inputs": [],
      "name": "totalSupply",
      "outputs": [
        {
          "internalType": "uint256",
          "name": "",
          "type": "uint256"
        }
      ],
      "stateMutability": "view",
      "type": "function"
    },
    {
      "inputs": [
        {
          "internalType": "address",
          "name": "to",
          "type": "address"
        },
        {
          "internalType": "uint256",
          "name": "value",
          "type": "uint256"
        }
      ],
      "name": "transfer",
      "outputs": [
        {
          "internalType": "bool",
          "name": "",
          "type": "bool"
        }
      ],
      "stateMutability": "nonpayable",
      "type": "function"
    },
    {
      "inputs": [
        {
          "internalType": "address",
          "name": "from",
          "type": "address"
        },
        {
          "internalType": "address",
          "name": "to",
          "type": "address"
        },
        {
          "internalType": "uint256",
          "name": "value",
          "type": "uint256"
        }
      ],
      "name": "transferFrom",
      "outputs": [
        {
          "internalType": "bool",
          "name": "",
          "type": "bool"
        }
      ],
      "stateMutability": "nonpayable",
      "type": "function"
    },
    {
      "inputs": [
        {
          "internalType": "address",
          "name": "newOwner",
          "type": "address"
        }
      ],
      "name": "transferOwnership",
      "outputs": [],
      "stateMutability": "nonpayable",
      "type": "function"
    },
    {
      "inputs": [
        {
          "internalType": "uint256",
          "name": "newQuizReward",
          "type": "uint256"
        },
        {
          "internalType": "uint256",
          "name": "newCorrectAnswerReward",
          "type": "uint256"
        }
      ],
      "name": "updateRewardAmounts",
      "outputs": [],
      "stateMutability": "nonpayable",
      "type": "function"
    },
    {
      "inputs": [
        {
          "internalType": "uint256",
          "name": "amount",
          "type": "uint256"
        }
      ],
      "name": "withdrawTokens",
      "outputs": [],
      "stateMutability": "nonpayable",
      "type": "function"
    }
  ],
  "bytecode": "0x6080604052620000126012600a62000410565b6200001f90600a62000428565b600655620000306012600a62000410565b6200003d90600162000428565b6007553480156200004d57600080fd5b50336040518060400160405280600b81526020016a28b930b33a102a37b5b2b760a91b81525060405180604001604052806005815260200164145490519560da1b8152508160039081620000a29190620004e7565b506004620000b18282620004e7565b5050506001600160a01b038116620000e457604051631e4fbdf760e01b8152600060048201526024015b60405180910390fd5b620000ef8162000138565b506200011833620001036012600a62000410565b6200011290620f424062000428565b6200018a565b336000908152600860205260409020805460ff19166001179055620005c9565b600580546001600160a01b038381166001600160a01b0319831681179093556040519116919082907f8be0079c531659141344cd1fd0a4f28419497f9722a3daafe3b4186f6b6457e090600090a35050565b6001600160a01b038216620001b65760405163ec442f0560e01b815260006004820152602401620000db565b620001c460008383620001c8565b5050565b6001600160a01b038316620001f7578060026000828254620001eb9190620005b3565b909155506200026b9050565b6001600160a01b038316600090815260208190526040902054818110156200024c5760405163391434e360e21b81526001600160a01b03851660048201526024810182905260448101839052606401620000db565b6001600160a01b03841660009081526020819052604090209082900390555b6001600160a01b0382166200028957600280548290039055620002a8565b6001600160a01b03821660009081526020819052604090208054820190555b816001600160a01b0316836001600160a01b03167fddf252ad1be2c89b69c2b068fc378daa952ba7f163c4a11628f55a4df523b3ef83604051620002ee91815260200190565b60405180910390a3505050565b634e487b7160e01b600052601160045260246000fd5b600181815b8085111562000352578160001904821115620003365762000336620002fb565b808516156200034457918102915b93841c939080029062000316565b509250929050565b6000826200036b575060016200040a565b816200037a575060006200040a565b81600181146200039357600281146200039e57620003be565b60019150506200040a565b60ff841115620003b257620003b2620002fb565b50506001821b6200040a565b5060208310610133831016604e8410600b8410161715620003e3575081810a6200040a565b620003ef838362000311565b8060001904821115620004065762000406620002fb565b0290505b92915050565b60006200042160ff8416836200035a565b9392505050565b80820281158282048414176200040a576200040a620002fb565b634e487b7160e01b600052604160045260246000fd5b600181811c908216806200046d57607f821691505b6020821081036200048e57634e487b7160e01b600052602260045260246000fd5b50919050565b601f821115620004e257600081815260208120601f850160051c81016020861015620004bd5750805b601f850160051c820191505b81811015620004de57828155600101620004c9565b5050505b505050565b81516001600160401b0381111562000503576200050362000442565b6200051b8162000514845462000458565b8462000494565b602080601f8311600181146200055357600084156200053a5750858301515b600019600386901b1c1916600185901b178555620004de565b600085815260208120601f198616915b82811015620005845788860151825594840194600190910190840162000563565b5085821015620005a35787850151600019600388901b60f8161c191681555b5050505050600190811b01905550565b808201808211156200040a576200040a620002fb565b6111be80620005d96000396000f3fe608060405234801561001057600080fd5b506004361061014d5760003560e01c80636f9fb98a116100c35780638df456fb1161007c5780638df456fb146102a357806395d89b41146102b6578063a9059cbb146102be578063a9c12f0c146102d1578063dd62ed3e146102f4578063f2fde38b1461032d57600080fd5b80636f9fb98a1461022657806370a082311461023b578063715018a61461026457806380e59f8d1461026c578063892e93051461027f5780638da5cb5b1461028857600080fd5b80632ff2e9dc116101155780632ff2e9dc146101cd578063313ce567146101d5578063315a095d146101e45780633519a2f8146101f75780634c16bdda1461020a5780636d3f43ad1461021357600080fd5b806306fdde0314610152578063095ea7b31461017057806318160ddd1461019357806323b872dd146101a55780632a7ea9d2146101b8575b600080fd5b61015a610340565b6040516101679190610b78565b60405180910390f35b61018361017e366004610bae565b6103d2565b6040519015158152602001610167565b6002545b604051908152602001610167565b6101836101b3366004610bd8565b6103ec565b6101cb6101c6366004610ccb565b610410565b005b6101976104ca565b60405160128152602001610167565b6101cb6101f2366004610d22565b6104e6565b6101cb610205366004610d22565b61052b565b61019760075481565b6101cb610221366004610d3b565b61053e565b30600090815260208190526040902054610197565b610197610249366004610d5d565b6001600160a01b031660009081526020819052604090205490565b6101cb610551565b6101cb61027a366004610d78565b610565565b61019760065481565b6005546040516001600160a01b039091168152602001610167565b6101cb6102b1366004610e43565b6105cc565b61015a610772565b6101836102cc366004610bae565b610781565b6101836102df366004610d5d565b60086020526000908152604090205460ff1681565b610197610302366004610f1d565b6001600160a01b03918216600090815260016020908152604080832093909416825291909152205490565b6101cb61033b366004610d5d565b61078f565b60606003805461034f90610f50565b80601f016020809104026020016040519081016040528092919081815260200182805461037b90610f50565b80156103c85780601f1061039d576101008083540402835291602001916103c8565b820191906000526020600020905b8154815290600101906020018083116103ab57829003601f168201915b5050505050905090565b6000336103e08185856107ca565b60019150505b92915050565b6000336103fa8582856107dc565b610405858585610855565b506001949350505050565b3360009081526008602052604090205460ff166104485760405162461bcd60e51b815260040161043f90610f8a565b60405180910390fd5b306000908152602081905260409020548211156104775760405162461bcd60e51b815260040161043f90610fce565b610482308484610855565b826001600160a01b03167f49649141d16971a88c3cfdd73fec34babb1cf163cf8b804c8f537a023c6ce50683836040516104bd929190611005565b60405180910390a2505050565b6104d66012600a611120565b6104e390620f424061112f565b81565b6104ee6108b4565b3060009081526020819052604090205481111561051d5760405162461bcd60e51b815260040161043f90610fce565b610528303383610855565b50565b6105336108b4565b610528333083610855565b6105466108b4565b600691909155600755565b6105596108b4565b61056360006108e1565b565b61056d6108b4565b6001600160a01b038216600081815260086020908152604091829020805460ff191685151590811790915591519182527fa852210219105cdf51ee9a33c11dd3d37ec6ea85e55ecff0b25dec123a05667a910160405180910390a25050565b3360009081526008602052604090205460ff166105fb5760405162461bcd60e51b815260040161043f90610f8a565b81518351146106455760405162461bcd60e51b8152602060048201526016602482015275082e4e4c2f2e640d8cadccee8d040dad2e6dac2e8c6d60531b604482015260640161043f565b60005b835181101561076c5782818151811061066357610663611146565b602002602001015161068a306001600160a01b031660009081526020819052604090205490565b10156106a85760405162461bcd60e51b815260040161043f90610fce565b6106e5308583815181106106be576106be611146565b60200260200101518584815181106106d8576106d8611146565b6020026020010151610855565b8381815181106106f7576106f7611146565b60200260200101516001600160a01b03167f49649141d16971a88c3cfdd73fec34babb1cf163cf8b804c8f537a023c6ce50684838151811061073b5761073b611146565b602002602001015184604051610752929190611005565b60405180910390a2806107648161115c565b915050610648565b50505050565b60606004805461034f90610f50565b6000336103e0818585610855565b6107976108b4565b6001600160a01b0381166107c157604051631e4fbdf760e01b81526000600482015260240161043f565b610528816108e1565b6107d78383836001610933565b505050565b6001600160a01b0383811660009081526001602090815260408083209386168352929052205460001981101561076c578181101561084657604051637dc7a0d960e11b81526001600160a01b0384166004820152602481018290526044810183905260640161043f565b61076c84848484036000610933565b6001600160a01b03831661087f57604051634b637e8f60e11b81526000600482015260240161043f565b6001600160a01b0382166108a95760405163ec442f0560e01b81526000600482015260240161043f565b6107d7838383610a08565b6005546001600160a01b031633146105635760405163118cdaa760e01b815233600482015260240161043f565b600580546001600160a01b038381166001600160a01b0319831681179093556040519116919082907f8be0079c531659141344cd1fd0a4f28419497f9722a3daafe3b4186f6b6457e090600090a35050565b6001600160a01b03841661095d5760405163e602df0560e01b81526000600482015260240161043f565b6001600160a01b03831661098757604051634a1406b160e11b81526000600482015260240161043f565b6001600160a01b038085166000908152600160209081526040808320938716835292905220829055801561076c57826001600160a01b0316846001600160a01b03167f8c5be1e5ebec7d5bd14f71427d1e84f3dd0314c0f7b2291e5b200ac8c7c3b925846040516109fa91815260200190565b60405180910390a350505050565b6001600160a01b038316610a33578060026000828254610a289190611175565b90915550610aa59050565b6001600160a01b03831660009081526020819052604090205481811015610a865760405163391434e360e21b81526001600160a01b0385166004820152602481018290526044810183905260640161043f565b6001600160a01b03841660009081526020819052604090209082900390555b6001600160a01b038216610ac157600280548290039055610ae0565b6001600160a01b03821660009081526020819052604090208054820190555b816001600160a01b0316836001600160a01b03167fddf252ad1be2c89b69c2b068fc378daa952ba7f163c4a11628f55a4df523b3ef83604051610b2591815260200190565b60405180910390a3505050565b6000815180845260005b81811015610b5857602081850181015186830182015201610b3c565b506000602082860101526020601f19601f83011685010191505092915050565b602081526000610b8b6020830184610b32565b9392505050565b80356001600160a01b0381168114610ba957600080fd5b919050565b60008060408385031215610bc157600080fd5b610bca83610b92565b946020939093013593505050565b600080600060608486031215610bed57600080fd5b610bf684610b92565b9250610c0460208501610b92565b9150604084013590509250925092565b634e487b7160e01b600052604160045260246000fd5b604051601f8201601f1916810167ffffffffffffffff81118282101715610c5357610c53610c14565b604052919050565b600082601f830112610c6c57600080fd5b813567ffffffffffffffff811115610c8657610c86610c14565b610c99601f8201601f1916602001610c2a565b818152846020838601011115610cae57600080fd5b816020850160208301376000918101602001919091529392505050565b600080600060608486031215610ce057600080fd5b610ce984610b92565b925060208401359150604084013567ffffffffffffffff811115610d0c57600080fd5b610d1886828701610c5b565b9150509250925092565b600060208284031215610d3457600080fd5b5035919050565b60008060408385031215610d4e57600080fd5b50508035926020909101359150565b600060208284031215610d6f57600080fd5b610b8b82610b92565b60008060408385031215610d8b57600080fd5b610d9483610b92565b915060208301358015158114610da957600080fd5b809150509250929050565b600067ffffffffffffffff821115610dce57610dce610c14565b5060051b60200190565b600082601f830112610de957600080fd5b81356020610dfe610df983610db4565b610c2a565b82815260059290921b84018101918181019086841115610e1d57600080fd5b8286015b84811015610e385780358352918301918301610e21565b509695505050505050565b600080600060608486031215610e5857600080fd5b833567ffffffffffffffff80821115610e7057600080fd5b818601915086601f830112610e8457600080fd5b81356020610e94610df983610db4565b82815260059290921b8401810191818101908a841115610eb357600080fd5b948201945b83861015610ed857610ec986610b92565b82529482019490820190610eb8565b97505087013592505080821115610eee57600080fd5b610efa87838801610dd8565b93506040860135915080821115610f1057600080fd5b50610d1886828701610c5b565b60008060408385031215610f3057600080fd5b610f3983610b92565b9150610f4760208401610b92565b90509250929050565b600181811c90821680610f6457607f821691505b602082108103610f8457634e487b7160e01b600052602260045260246000fd5b50919050565b60208082526024908201527f4e6f7420617574686f72697a656420746f2064697374726962757465207265776040820152636172647360e01b606082015260800190565b6020808252601d908201527f496e73756666696369656e7420636f6e74726163742062616c616e6365000000604082015260600190565b82815260406020820152600061101e6040830184610b32565b949350505050565b634e487b7160e01b600052601160045260246000fd5b600181815b8085111561107757816000190482111561105d5761105d611026565b8085161561106a57918102915b93841c9390800290611041565b509250929050565b60008261108e575060016103e6565b8161109b575060006103e6565b81600181146110b157600281146110bb576110d7565b60019150506103e6565b60ff8411156110cc576110cc611026565b50506001821b6103e6565b5060208310610133831016604e8410600b84101617156110fa575081810a6103e6565b611104838361103c565b806000190482111561111857611118611026565b029392505050565b6000610b8b60ff84168361107f565b80820281158282048414176103e6576103e6611026565b634e487b7160e01b600052603260045260246000fd5b60006001820161116e5761116e611026565b5060010190565b808201808211156103e6576103e661102656fea264697066735822122035d43cb411ff9e6c6af5a24f69a905bdb9bf554feb8aee396c6be912cd3660ac64736f6c63430008140033",
  "linkReferences": {},
  "deployedLinkReferences": {}
}